:100000000C9458000C9480000C9480000C94800098
:100010000C9480000C9480000C9480000C94800060
:100020000C9480000C9480000C9480000C94800050
:100030000C9480000C9480000C9480000C94800040
:100040000C9496030C9480000C9464030C943E036F
:100050000C9480000C9480000C9480000C94800020
:100060000C94E0030C9480000000000025002800A0
:100070002B00040404040404040402020202020229
:10008000030303030303010204081020408001025C
:1000900004081020010204081020000000080002DB
:1000A0000100000304070000000000000000FF043E
:1000B00011241FBECFEFD8E0DEBFCDBF11E0A0E01E
:1000C000B1E0E6E2FCE002C005900D92AA34B1076F
:1000D000D9F722E0AAE4B1E001C01D92A539B20728
:1000E000E1F710E0C8E5D0E004C02197FE010E94CE
:1000F0000B06C735D107C9F70E9438050C941106C5
:100100000C94000008950895AF92BF92CF92DF92B1
:10011000EF92FF920F931F93CF93DF936C017B01BC
:100120008B01040F151FEB015E01AE18BF08C0174D
:10013000D10759F06991D601ED91FC910190F081C0
:10014000E02DC6010995892B79F7C501DF91CF9183
:100150001F910F91FF90EF90DF90CF90BF90AF90E5
:100160000895FC01538D448D252F30E0842F90E0BD
:10017000821B930B541710F0CF96089501970895A2
:10018000FC01918D828D981761F0A28DAE0FBF2F6B
:10019000B11D5D968C91928D9F5F9F73928F90E0C1
:1001A00008958FEF9FEF0895FC01918D828D981730
:1001B00031F0828DE80FF11D858D90E008958FEF6D
:1001C0009FEF0895FC01918D228D892F90E0805C36
:1001D0009F4F821B91098F73992708958CEE91E0B0
:1001E0000E94E20021E0892B09F420E0822F08958B
:1001F00080E090E0892B29F00E94EE0081110C94A0
:1002000000000895FC01A48DA80FB92FB11DA35AB9
:10021000BF4F2C91848D90E001968F739927848F26
:10022000A689B7892C93A089B1898C918370806449
:100230008C93938D848D981306C00288F389E02DEA
:1002400080818F7D80830895EF92FF920F931F939B
:10025000CF93DF93EC0181E0888F9B8D8C8D981379
:100260001AC0E889F989808185FF15C09FB7F89485
:10027000EE89FF896083E889F989808183708064D1
:1002800080839FBF81E090E0DF91CF911F910F911C
:10029000FF90EF900895F62E0B8D10E00F5F1F4F2B
:1002A0000F731127E02E8C8D8E110CC00FB607FC3A
:1002B000FACFE889F989808185FFF5CFCE010E94C8
:1002C0000201F1CFEB8DEC0FFD2FF11DE35AFF4F33
:1002D000F0829FB7F8940B8FEA89FB898081806256
:1002E000CFCFCF93DF93EC01888D8823B9F0AA8913
:1002F000BB89E889F9898C9185FD03C0808186FDE1
:100300000DC00FB607FCF7CF8C9185FFF2CF80812F
:1003100085FFEDCFCE010E940201E9CFDF91CF91A1
:10032000089590E0FC01E656FF4F2491FC01EA5746
:10033000FF4F3491FC01EE58FF4FE491EE23C9F0DA
:10034000222339F0233001F1A8F4213019F12230B1
:1003500029F1F0E0EE0FFF1FE859FF4FA591B4918E
:100360008FB7F894EC91611126C030953E233C93F1
:100370008FBF08952730A9F02830C9F0243049F7FD
:10038000809180008F7D03C0809180008F77809363
:100390008000DFCF84B58F7784BDDBCF84B58F7DC0
:1003A000FBCF8091B0008F778093B000D2CF809147
:1003B000B0008F7DF9CF3E2BDACF3FB7F894809114
:1003C000DF019091E001A091E101B091E20126B539
:1003D000A89B05C02F3F19F00196A11DB11D3FBF7D
:1003E000BA2FA92F982F8827BC01CD01620F711D4C
:1003F000811D911D42E0660F771F881F991F4A9546
:10040000D1F7089520919001260F3327331F213211
:100410003105ECF42091B401FC0190E080E024303F
:1004200069F082E00895A09190012191AC014059BA
:100430005E4FA40FB52FB11D2C930196861798F32C
:1004400080919001680F6093900180E0089581E0B1
:1004500008951092B40181E08093B6011092B50125
:1004600061E082E10E94910161E083E10E949101DB
:10047000E9EBF0E080818E7F808380818D7F8083B7
:1004800088E48093B80085E48093BC0008950895C3
:10049000E091EB018091EA01E81730F4F0E0E65BCF
:1004A000FE4F808190E008958FEF9FEF0895909127
:1004B000EB018091EA012FEF3FEF981748F4E92F05
:1004C000F0E0E65BFE4F208130E09F5F9093EB0110
:1004D000C90108958091EA019091EB01891B990B64
:1004E0000895CF92DF92EF92FF920F931F93CF93D5
:1004F000DF937C01CB018A012091E301222389F063
:10050000EB016B01C40ED51ECC15DD0569F06991B8
:10051000D701ED91FC910190F081E02DC701099583
:10052000F3CF642F0E940202C801DF91CF911F9187
:100530000F91FF90EF90DF90CF900895CF93DF93CE
:100540001F92CDB7DEB769832091E3012223C9F062
:100550002091E801203258F021E030E0FC013383A3
:10056000228390E080E00F90DF91CF9108958091F9
:10057000E9018F5F8093E9018093E80181E090E0D9
:10058000F2CF61E0CE0101960E940202F7CF90E027
:1005900080E00895CF93DF93FC0101900020E9F7FC
:1005A0003197AF01481B590BBC018CEE91E00E94C2
:1005B0008400EC0142E050E064E271E08CEE91E0F6
:1005C0000E9484008C0F9D1FDF91CF910895CF93DF
:1005D000DF9385ED8093BC0080916C0190916D015B
:1005E000A0916E01B0916F010796A11DB11D23E08E
:1005F000B695A795979587952A95D1F72091BC0038
:1006000024FD03C01092B40136C040916C0150919A
:100610006D0160916E0170916F01452B462B472B48
:1006200069F30097A105B10541F025E32A95F1F79B
:1006300000000197A109B109E1CF80916B0191E020
:1006400090936A018823B9F0C091B800D091BA00A4
:100650008091BC008A7B8093BC0060E082E10E94B4
:10066000910160E083E10E9491010E942902D093F0
:10067000BA00C093B800DF91CF9108951F920F92F6
:100680000FB60F9211242F933F934F935F936F9365
:100690007F938F939F93AF93BF93EF93FF938CEED2
:1006A00091E00E940201FF91EF91BF91AF919F9164
:1006B0008F917F916F915F914F913F912F910F900B
:1006C0000FBE0F901F9018951F920F920FB60F92AA
:1006D00011242F938F939F93EF93FF93E091FC014D
:1006E000F091FD018081E0910202F091030282FD10
:1006F0001BC09081809105028F5F8F73209106024D
:10070000821741F0E0910502F0E0E451FE4F958F31
:1007100080930502FF91EF919F918F912F910F9000
:100720000FBE0F901F9018958081F4CF1F920F92EB
:100730000FB60F9211242F933F938F939F93AF93F4
:10074000BF938091DB019091DC01A091DD01B0911C
:10075000DE013091DA0123E0230F2D3758F50196A1
:10076000A11DB11D2093DA018093DB019093DC0180
:10077000A093DD01B093DE018091DF019091E00153
:10078000A091E101B091E2010196A11DB11D8093FC
:10079000DF019093E001A093E101B093E201BF91EA
:1007A000AF919F918F913F912F910F900FBE0F901E
:1007B0001F90189526E8230F0296A11DB11DD2CFD8
:1007C0001F920F920FB60F9211242F933F934F93C6
:1007D0005F936F937F938F939F93AF93BF93EF93A9
:1007E000FF938091B900887F803609F44AC0F0F504
:1007F000883209F4A7C018F5803109F49BC0B8F419
:10080000882309F4F9C0883009F494C0FF91EF916E
:10081000BF91AF919F918F917F916F915F914F9118
:100820003F912F910F900FBE0F901F901895883118
:1008300009F488C0803251F78093B30114C080342A
:1008400009F49DC040F48033B9F38833F9F68093FE
:10085000B30185ECB0C0803509F485C0883509F452
:1008600096C0883499F60E94E702D0CF883909F4FF
:100870008CC038F5883729F050F4883611F080376D
:1008800029F683E08093B4011092B20157C08838F2
:1008900009F47BC0803919F0803809F0B7CF809116
:1008A000B201803208F071C0E091B20181E08E0F98
:1008B0008093B2018091BB00F0E0EE56FE4F808342
:1008C0003DC0803B39F0E0F4803A09F479C0883AC1
:1008D00009F09CCF84E08093B401109291011092B2
:1008E0009001E091E601F091E70109958091900176
:1008F00081110FC081E0809390011092700109C0B6
:10090000803C09F4A6CF883C09F4A3CF883B09F0CA
:100910007DCFE091910181E08E0F80939101F0E015
:10092000E059FE4F80818093BB00909191018091AE
:10093000900129C08091D9018093BB0085EC809300
:10094000BC0064CF9091D8018091D701981758F5D9
:10095000E091D80181E08E0F8093D801F0E0E95456
:10096000FE4F8081E9CFE091D80181E08E0F809326
:10097000D8018091BB00F0E0E954FE4F8083909154
:10098000D8018091D7019817C8F285E8D8CFE091B7
:10099000D80181E08E0F8093D8018091BB00F0E0F8
:1009A000E954FE4F80838091B60181115CCF81E0D4
:1009B0008093B50184EA8093BC001092B40126CFE5
:1009C00085EC8093BC001092B4018091B20180321A
:1009D00030F4E091B201F0E0EE56FE4F10826091EB
:1009E000B20170E0E091E401F091E50182E991E06B
:1009F00009951092B2010ACF1092B30134CFECEEF8
:100A0000F1E01382128288EE93E0A0E0B0E08483EC
:100A10009583A683B78324E031E03183208325ECDE
:100A200030E03587248724EC30E03787268720ECB8
:100A300030E0318B208B21EC30E0338B228B22ECA9
:100A400030E0358B248B26EC30E0378B268B118EF3
:100A5000128E138E148EE9E8F2E0138212828483E0
:100A60009583A683B78386E191E09183808308957F
:100A7000789484B5826084BD84B5816084BD85B579
:100A8000826085BD85B5816085BD80916E00816085
:100A900080936E001092810080918100826080932B
:100AA000810080918100816080938100809180002D
:100AB0008160809380008091B10084608093B10058
:100AC0008091B00081608093B00080917A00846052
:100AD00080937A0080917A00826080937A0080917E
:100AE0007A00816080937A0080917A008068809398
:100AF0007A001092C100E091FC01F091FD0182E0CA
:100B00008083E091F801F091F9011082E091FA01FF
:100B1000F091FB018FEC808310920402E0910002BF
:100B2000F091010286E08083E091FE01F091FF01E7
:100B3000808180618083E091FE01F091FF018081DE
:100B400088608083E091FE01F091FF0180818068E0
:100B50008083E091FE01F091FF0180818F7D808391
:100B600087E291E00E94CA02C2E8D0E003E810E008
:100B70009924939490E0A92E90E0B92E85E391E01A
:100B80000E94CA021092EB011092EA011092E90150
:100B90001092E8010E942902D093E701C093E60178
:100BA0001093E5010093E4019092E3018FE391E05B
:100BB0000E94CA020E94DD012B013C0184EFC82E75
:100BC000DD24D394E12CF12C0E94DD016419750918
:100BD00086099709683E734081059105A8F321E0D5
:100BE000C21AD108E108F10888EE480E83E0581EC9
:100BF000611C711CC114D104E104F10429F7A11492
:100C0000B10409F4BBCF0E94EE00882309F4B6CFEB
:100C10000E940000B3CFEE0FFF1F0590F491E02D6E
:060C20000994F894FFCFD7
:100C26000000000024018400B1007101E200C00050
:100C3600D400000000009E027102C70247026A0249
:100C4600570248020D0A0055617274206F70656E76
:100C56006E65642E006D61696E206C6F6F70006149
:0A0C660066746572207465737400F3
:00000001FF
